{
	"data": {
		"bytecode": {
			"linkReferences": {},
			"object": "6080604052348015600e575f80fd5b506105728061001c5f395ff3fe608060405234801561000f575f80fd5b506004361061004a575f3560e01c8063034899bc1461004e5780634c93bab51461006c578063cd580ff31461009c578063f0fdf834146100cc575b5f80fd5b6100566100fc565b60405161006391906102a4565b60405180910390f35b6100866004803603810190610081919061031e565b61010a565b604051610093919061036b565b60405180910390f35b6100b660048036038101906100b19190610384565b610241565b6040516100c3919061036b565b60405180910390f35b6100e660048036038101906100e19190610384565b610256565b6040516100f3919061036b565b60405180910390f35b5f63cd580ff360e01b905090565b5f805f3073ffffffffffffffffffffffffffffffffffffffff168585604051602401610136919061036b565b604051602081830303815290604052907bffffffffffffffffffffffffffffffffffffffffffffffffffffffff19166020820180517bffffffffffffffffffffffffffffffffffffffffffffffffffffffff83818316178352505050506040516101a09190610401565b5f604051808303815f865af19150503d805f81146101d9576040519150601f19603f3d011682016040523d82523d5f602084013e6101de565b606091505b509150915081610223576040517f08c379a000000000000000000000000000000000000000000000000000000000815260040161021a90610471565b60405180910390fd5b8080602001905181019061023791906104a3565b9250505092915050565b5f81600261024f91906104fb565b9050919050565b5f818261026391906104fb565b9050919050565b5f7fffffffff0000000000000000000000000000000000000000000000000000000082169050919050565b61029e8161026a565b82525050565b5f6020820190506102b75f830184610295565b92915050565b5f80fd5b6102ca8161026a565b81146102d4575f80fd5b50565b5f813590506102e5816102c1565b92915050565b5f819050919050565b6102fd816102eb565b8114610307575f80fd5b50565b5f81359050610318816102f4565b92915050565b5f8060408385031215610334576103336102bd565b5b5f610341858286016102d7565b92505060206103528582860161030a565b9150509250929050565b610365816102eb565b82525050565b5f60208201905061037e5f83018461035c565b92915050565b5f60208284031215610399576103986102bd565b5b5f6103a68482850161030a565b91505092915050565b5f81519050919050565b5f81905092915050565b8281835e5f83830152505050565b5f6103db826103af565b6103e581856103b9565b93506103f58185602086016103c3565b80840191505092915050565b5f61040c82846103d1565b915081905092915050565b5f82825260208201905092915050565b7f46756e6374696f6e2063616c6c206661696c65640000000000000000000000005f82015250565b5f61045b601483610417565b915061046682610427565b602082019050919050565b5f6020820190508181035f8301526104888161044f565b9050919050565b5f8151905061049d816102f4565b92915050565b5f602082840312156104b8576104b76102bd565b5b5f6104c58482850161048f565b91505092915050565b7f4e487b71000000000000000000000000000000000000000000000000000000005f52601160045260245ffd5b5f610505826102eb565b9150610510836102eb565b925082820261051e816102eb565b91508282048414831517610535576105346104ce565b5b509291505056fea2646970667358221220820949d61a7ff066442c122320a513242fb61928aba794eedaabebd0b04df6d964736f6c634300081a0033",
			"opcodes": "PUSH1 0x80 PUSH1 0x40 MSTORE CALLVALUE DUP1 ISZERO PUSH1 0xE JUMPI PUSH0 DUP1 REVERT JUMPDEST POP PUSH2 0x572 DUP1 PUSH2 0x1C PUSH0 CODECOPY PUSH0 RETURN INVALID PUSH1 0x80 PUSH1 0x40 MSTORE CALLVALUE DUP1 ISZERO PUSH2 0xF JUMPI PUSH0 DUP1 REVERT JUMPDEST POP PUSH1 0x4 CALLDATASIZE LT PUSH2 0x4A JUMPI PUSH0 CALLDATALOAD PUSH1 0xE0 SHR DUP1 PUSH4 0x34899BC EQ PUSH2 0x4E JUMPI DUP1 PUSH4 0x4C93BAB5 EQ PUSH2 0x6C JUMPI DUP1 PUSH4 0xCD580FF3 EQ PUSH2 0x9C JUMPI DUP1 PUSH4 0xF0FDF834 EQ PUSH2 0xCC JUMPI JUMPDEST PUSH0 DUP1 REVERT JUMPDEST PUSH2 0x56 PUSH2 0xFC JUMP JUMPDEST PUSH1 0x40 MLOAD PUSH2 0x63 SWAP2 SWAP1 PUSH2 0x2A4 JUMP JUMPDEST PUSH1 0x40 MLOAD DUP1 SWAP2 SUB SWAP1 RETURN JUMPDEST PUSH2 0x86 PUSH1 0x4 DUP1 CALLDATASIZE SUB DUP2 ADD SWAP1 PUSH2 0x81 SWAP2 SWAP1 PUSH2 0x31E JUMP JUMPDEST PUSH2 0x10A JUMP JUMPDEST PUSH1 0x40 MLOAD PUSH2 0x93 SWAP2 SWAP1 PUSH2 0x36B JUMP JUMPDEST PUSH1 0x40 MLOAD DUP1 SWAP2 SUB SWAP1 RETURN JUMPDEST PUSH2 0xB6 PUSH1 0x4 DUP1 CALLDATASIZE SUB DUP2 ADD SWAP1 PUSH2 0xB1 SWAP2 SWAP1 PUSH2 0x384 JUMP JUMPDEST PUSH2 0x241 JUMP JUMPDEST PUSH1 0x40 MLOAD PUSH2 0xC3 SWAP2 SWAP1 PUSH2 0x36B JUMP JUMPDEST PUSH1 0x40 MLOAD DUP1 SWAP2 SUB SWAP1 RETURN JUMPDEST PUSH2 0xE6 PUSH1 0x4 DUP1 CALLDATASIZE SUB DUP2 ADD SWAP1 PUSH2 0xE1 SWAP2 SWAP1 PUSH2 0x384 JUMP JUMPDEST PUSH2 0x256 JUMP JUMPDEST PUSH1 0x40 MLOAD PUSH2 0xF3 SWAP2 SWAP1 PUSH2 0x36B JUMP JUMPDEST PUSH1 0x40 MLOAD DUP1 SWAP2 SUB SWAP1 RETURN JUMPDEST PUSH0 PUSH4 0xCD580FF3 PUSH1 0xE0 SHL SWAP1 POP SWAP1 JUMP JUMPDEST PUSH0 DUP1 PUSH0 ADDRESS PUSH20 0xFFFFFFFFFFFFFFFFFFFFFFFFFFFFFFFFFFFFFFFF AND DUP6 DUP6 PUSH1 0x40 MLOAD PUSH1 0x24 ADD PUSH2 0x136 SWAP2 SWAP1 PUSH2 0x36B JUMP JUMPDEST PUSH1 0x40 MLOAD PUSH1 0x20 DUP2 DUP4 SUB SUB DUP2 MSTORE SWAP1 PUSH1 0x40 MSTORE SWAP1 PUSH28 0xFFFFFFFFFFFFFFFFFFFFFFFFFFFFFFFFFFFFFFFFFFFFFFFFFFFFFFFF NOT AND PUSH1 0x20 DUP3 ADD DUP1 MLOAD PUSH28 0xFFFFFFFFFFFFFFFFFFFFFFFFFFFFFFFFFFFFFFFFFFFFFFFFFFFFFFFF DUP4 DUP2 DUP4 AND OR DUP4 MSTORE POP POP POP POP PUSH1 0x40 MLOAD PUSH2 0x1A0 SWAP2 SWAP1 PUSH2 0x401 JUMP JUMPDEST PUSH0 PUSH1 0x40 MLOAD DUP1 DUP4 SUB DUP2 PUSH0 DUP7 GAS CALL SWAP2 POP POP RETURNDATASIZE DUP1 PUSH0 DUP2 EQ PUSH2 0x1D9 JUMPI PUSH1 0x40 MLOAD SWAP2 POP PUSH1 0x1F NOT PUSH1 0x3F RETURNDATASIZE ADD AND DUP3 ADD PUSH1 0x40 MSTORE RETURNDATASIZE DUP3 MSTORE RETURNDATASIZE PUSH0 PUSH1 0x20 DUP5 ADD RETURNDATACOPY PUSH2 0x1DE JUMP JUMPDEST PUSH1 0x60 SWAP2 POP JUMPDEST POP SWAP2 POP SWAP2 POP DUP2 PUSH2 0x223 JUMPI PUSH1 0x40 MLOAD PUSH32 0x8C379A000000000000000000000000000000000000000000000000000000000 DUP2 MSTORE PUSH1 0x4 ADD PUSH2 0x21A SWAP1 PUSH2 0x471 JUMP JUMPDEST PUSH1 0x40 MLOAD DUP1 SWAP2 SUB SWAP1 REVERT JUMPDEST DUP1 DUP1 PUSH1 0x20 ADD SWAP1 MLOAD DUP2 ADD SWAP1 PUSH2 0x237 SWAP2 SWAP1 PUSH2 0x4A3 JUMP JUMPDEST SWAP3 POP POP POP SWAP3 SWAP2 POP POP JUMP JUMPDEST PUSH0 DUP2 PUSH1 0x2 PUSH2 0x24F SWAP2 SWAP1 PUSH2 0x4FB JUMP JUMPDEST SWAP1 POP SWAP2 SWAP1 POP JUMP JUMPDEST PUSH0 DUP2 DUP3 PUSH2 0x263 SWAP2 SWAP1 PUSH2 0x4FB JUMP JUMPDEST SWAP1 POP SWAP2 SWAP1 POP JUMP JUMPDEST PUSH0 PUSH32 0xFFFFFFFF00000000000000000000000000000000000000000000000000000000 DUP3 AND SWAP1 POP SWAP2 SWAP1 POP JUMP JUMPDEST PUSH2 0x29E DUP2 PUSH2 0x26A JUMP JUMPDEST DUP3 MSTORE POP POP JUMP JUMPDEST PUSH0 PUSH1 0x20 DUP3 ADD SWAP1 POP PUSH2 0x2B7 PUSH0 DUP4 ADD DUP5 PUSH2 0x295 JUMP JUMPDEST SWAP3 SWAP2 POP POP JUMP JUMPDEST PUSH0 DUP1 REVERT JUMPDEST PUSH2 0x2CA DUP2 PUSH2 0x26A JUMP JUMPDEST DUP2 EQ PUSH2 0x2D4 JUMPI PUSH0 DUP1 REVERT JUMPDEST POP JUMP JUMPDEST PUSH0 DUP2 CALLDATALOAD SWAP1 POP PUSH2 0x2E5 DUP2 PUSH2 0x2C1 JUMP JUMPDEST SWAP3 SWAP2 POP POP JUMP JUMPDEST PUSH0 DUP2 SWAP1 POP SWAP2 SWAP1 POP JUMP JUMPDEST PUSH2 0x2FD DUP2 PUSH2 0x2EB JUMP JUMPDEST DUP2 EQ PUSH2 0x307 JUMPI PUSH0 DUP1 REVERT JUMPDEST POP JUMP JUMPDEST PUSH0 DUP2 CALLDATALOAD SWAP1 POP PUSH2 0x318 DUP2 PUSH2 0x2F4 JUMP JUMPDEST SWAP3 SWAP2 POP POP JUMP JUMPDEST PUSH0 DUP1 PUSH1 0x40 DUP4 DUP6 SUB SLT ISZERO PUSH2 0x334 JUMPI PUSH2 0x333 PUSH2 0x2BD JUMP JUMPDEST JUMPDEST PUSH0 PUSH2 0x341 DUP6 DUP3 DUP7 ADD PUSH2 0x2D7 JUMP JUMPDEST SWAP3 POP POP PUSH1 0x20 PUSH2 0x352 DUP6 DUP3 DUP7 ADD PUSH2 0x30A JUMP JUMPDEST SWAP2 POP POP SWAP3 POP SWAP3 SWAP1 POP JUMP JUMPDEST PUSH2 0x365 DUP2 PUSH2 0x2EB JUMP JUMPDEST DUP3 MSTORE POP POP JUMP JUMPDEST PUSH0 PUSH1 0x20 DUP3 ADD SWAP1 POP PUSH2 0x37E PUSH0 DUP4 ADD DUP5 PUSH2 0x35C JUMP JUMPDEST SWAP3 SWAP2 POP POP JUMP JUMPDEST PUSH0 PUSH1 0x20 DUP3 DUP5 SUB SLT ISZERO PUSH2 0x399 JUMPI PUSH2 0x398 PUSH2 0x2BD JUMP JUMPDEST JUMPDEST PUSH0 PUSH2 0x3A6 DUP5 DUP3 DUP6 ADD PUSH2 0x30A JUMP JUMPDEST SWAP2 POP POP SWAP3 SWAP2 POP POP JUMP JUMPDEST PUSH0 DUP2 MLOAD SWAP1 POP SWAP2 SWAP1 POP JUMP JUMPDEST PUSH0 DUP2 SWAP1 POP SWAP3 SWAP2 POP POP JUMP JUMPDEST DUP3 DUP2 DUP4 MCOPY PUSH0 DUP4 DUP4 ADD MSTORE POP POP POP JUMP JUMPDEST PUSH0 PUSH2 0x3DB DUP3 PUSH2 0x3AF JUMP JUMPDEST PUSH2 0x3E5 DUP2 DUP6 PUSH2 0x3B9 JUMP JUMPDEST SWAP4 POP PUSH2 0x3F5 DUP2 DUP6 PUSH1 0x20 DUP7 ADD PUSH2 0x3C3 JUMP JUMPDEST DUP1 DUP5 ADD SWAP2 POP POP SWAP3 SWAP2 POP POP JUMP JUMPDEST PUSH0 PUSH2 0x40C DUP3 DUP5 PUSH2 0x3D1 JUMP JUMPDEST SWAP2 POP DUP2 SWAP1 POP SWAP3 SWAP2 POP POP JUMP JUMPDEST PUSH0 DUP3 DUP3 MSTORE PUSH1 0x20 DUP3 ADD SWAP1 POP SWAP3 SWAP2 POP POP JUMP JUMPDEST PUSH32 0x46756E6374696F6E2063616C6C206661696C6564000000000000000000000000 PUSH0 DUP3 ADD MSTORE POP JUMP JUMPDEST PUSH0 PUSH2 0x45B PUSH1 0x14 DUP4 PUSH2 0x417 JUMP JUMPDEST SWAP2 POP PUSH2 0x466 DUP3 PUSH2 0x427 JUMP JUMPDEST PUSH1 0x20 DUP3 ADD SWAP1 POP SWAP2 SWAP1 POP JUMP JUMPDEST PUSH0 PUSH1 0x20 DUP3 ADD SWAP1 POP DUP2 DUP2 SUB PUSH0 DUP4 ADD MSTORE PUSH2 0x488 DUP2 PUSH2 0x44F JUMP JUMPDEST SWAP1 POP SWAP2 SWAP1 POP JUMP JUMPDEST PUSH0 DUP2 MLOAD SWAP1 POP PUSH2 0x49D DUP2 PUSH2 0x2F4 JUMP JUMPDEST SWAP3 SWAP2 POP POP JUMP JUMPDEST PUSH0 PUSH1 0x20 DUP3 DUP5 SUB SLT ISZERO PUSH2 0x4B8 JUMPI PUSH2 0x4B7 PUSH2 0x2BD JUMP JUMPDEST JUMPDEST PUSH0 PUSH2 0x4C5 DUP5 DUP3 DUP6 ADD PUSH2 0x48F JUMP JUMPDEST SWAP2 POP POP SWAP3 SWAP2 POP POP JUMP JUMPDEST PUSH32 0x4E487B7100000000000000000000000000000000000000000000000000000000 PUSH0 MSTORE PUSH1 0x11 PUSH1 0x4 MSTORE PUSH1 0x24 PUSH0 REVERT JUMPDEST PUSH0 PUSH2 0x505 DUP3 PUSH2 0x2EB JUMP JUMPDEST SWAP2 POP PUSH2 0x510 DUP4 PUSH2 0x2EB JUMP JUMPDEST SWAP3 POP DUP3 DUP3 MUL PUSH2 0x51E DUP2 PUSH2 0x2EB JUMP JUMPDEST SWAP2 POP DUP3 DUP3 DIV DUP5 EQ DUP4 ISZERO OR PUSH2 0x535 JUMPI PUSH2 0x534 PUSH2 0x4CE JUMP JUMPDEST JUMPDEST POP SWAP3 SWAP2 POP POP JUMP INVALID LOG2 PUSH5 0x6970667358 0x22 SLT KECCAK256 DUP3 MULMOD BLOBHASH 0xD6 BYTE PUSH32 0xF066442C122320A513242FB61928ABA794EEDAABEBD0B04DF6D964736F6C6343 STOP ADDMOD BYTE STOP CALLER "
		},
		"gasEstimates": {
			"creation": {
				"codeDepositCost": "278800",
				"executionCost": "316",
				"totalCost": "279116"
			},
			"external": {
				"a(uint256)": "infinite",
				"b(uint256)": "infinite",
				"getSelector()": "322",
				"select(bytes4,uint256)": "infinite"
			}
		},
		"methodIdentifiers": {
			"a(uint256)": "f0fdf834",
			"b(uint256)": "cd580ff3",
			"getSelector()": "034899bc",
			"select(bytes4,uint256)": "4c93bab5"
		}
	},
	"abi": [
		{
			"inputs": [
				{
					"internalType": "uint256",
					"name": "x",
					"type": "uint256"
				}
			],
			"name": "a",
			"outputs": [
				{
					"internalType": "uint256",
					"name": "z",
					"type": "uint256"
				}
			],
			"stateMutability": "pure",
			"type": "function"
		},
		{
			"inputs": [
				{
					"internalType": "uint256",
					"name": "x",
					"type": "uint256"
				}
			],
			"name": "b",
			"outputs": [
				{
					"internalType": "uint256",
					"name": "z",
					"type": "uint256"
				}
			],
			"stateMutability": "pure",
			"type": "function"
		},
		{
			"inputs": [],
			"name": "getSelector",
			"outputs": [
				{
					"internalType": "bytes4",
					"name": "",
					"type": "bytes4"
				}
			],
			"stateMutability": "pure",
			"type": "function"
		},
		{
			"inputs": [
				{
					"internalType": "bytes4",
					"name": "selector",
					"type": "bytes4"
				},
				{
					"internalType": "uint256",
					"name": "x",
					"type": "uint256"
				}
			],
			"name": "select",
			"outputs": [
				{
					"internalType": "uint256",
					"name": "z",
					"type": "uint256"
				}
			],
			"stateMutability": "nonpayable",
			"type": "function"
		}
	]
}